:100000000C945C000C9484000C9484000C94840088
:100010000C9484000C9484000C9484000C94840050
:100020000C9484000C9484000C9484000C94840040
:100030000C9484000C9484000C9484000C94840030
:100040000C94AA1F0C9484000C9423220C9484001A
:100050000C9484000C9484000C9484000C94840010
:100060000C9484000C948400000024272A000025AE
:10007000282B000023262904040404040404040299
:100080000202020202030303030303010204081035
:100090002040800102040810200102040810200002
:1000A0000000070002010000030406000000000039
:1000B000000000007107C31E11241FBECFEFD8E05F
:1000C000DEBFCDBF12E0A0E0B1E0EEE6FAE402C090
:1000D00005900D92A837B107D9F714E0A8E7B2E070
:1000E00001C01D92A536B107E1F710E0C8EBD0E0E2
:1000F00004C02297FE010E943125C43BD107C9F7F5
:100100000E94BA1E0C9435250C9400008C34D1F456
:1001100020913E0330913F03809154039091550309
:100120002817390734F48091520390915303892B97
:10013000E1F020914003309141038091560390916A
:10014000570322C0823581F520914003309141034D
:100150008091560390915703281739076CF48091CA
:10016000520390915303892B39F481E090E09093EE
:1001700053038093520319C020913E0330913F03F3
:1001800080915403909155032817390774F4809196
:10019000520390915303019741F41092530310922C
:1001A000520321E030E003C0089520E030E0C901AF
:1001B00008958C3461F0823551F0823441F08735F6
:1001C00031F0883521F0893511F08A3519F48093A2
:1001D000390208958E3411F4809339020895809184
:1001E000390208958C3461F0823551F0823441F047
:1001F000873531F0883521F0893511F08A3519F4C9
:100200008093380208958E3411F480933802089553
:100210008091380208958091320290913302909338
:1002200079038093780390937703809376032091EA
:1002300024023091250280910C0290910D02821BC4
:10024000930B909347038093460380910E02909105
:100250000F02821B930B9093490380934803809174
:10026000100290911102821B930B90934B03809389
:100270004A038091120290911302821B930B909378
:100280004D0380934C030895809130029091310288
:100290009093790380937803909377038093760308
:1002A000209124023091250280910C0290910D0240
:1002B000820F931F909347038093460380910E0211
:1002C00090910F02820F931F9093490380934803EC
:1002D0008091100290911102820F931F90934B0313
:1002E00080934A038091120290911302820F931F10
:1002F00090934D0380934C030895109273031092D2
:10030000720310927503109274031092810310927D
:10031000800310928303109282031092850310923F
:10032000840381E090E09093FD018093FC011092A2
:1003300031031092300310925303109252039093A2
:1003400001028093000290933D0280933C02109240
:100350003903109238031092370310923603089530
:1003600020912A0230912B02809112029091130267
:10037000821B930B90934D0380934C03809110024A
:1003800090911102821B930B90934B0380934A032D
:10039000209170033091710380910C0290910D02B5
:1003A000820F931F909347038093460380910E0220
:1003B00090910F02821B930B909349038093480303
:1003C000089520912A0230912B028091120290917F
:1003D0001302820F931F90934D0380934C038091DF
:1003E000100290911102820F931F90934B03809300
:1003F0004A03209170033091710380910C02909117
:100400000D02820F931F90934703809346038091C0
:100410000E0290910F02821B930B909349038093DD
:100420004803089580910C0290910D029093470328
:100430008093460380910E0290910F02909349039E
:1004400080934803809110029091110290934B0386
:1004500080934A03809112029091130290934D036E
:1004600080934C0308951092870310928603109294
:1004700089031092880382E390E090932302809393
:10048000220208952F923F924F925F926F927F9235
:100490008F929F92AF92BF92CF92DF92EF92FF9294
:1004A0000F931F93DF93CF93CDB7DEB7CE54D040D9
:1004B0000FB6F894DEBF0FBECDBF9C8F8B8F5E8FC3
:1004C0004D8F38A32F8F1AA309A3FCA2EBA2DEA2A3
:1004D000CDA2615070407C836B8380E090E01D82F0
:1004E0001886980126573D4F24963FAF2EAF24978C
:1004F0004F8D58A1509541955F4F26965FAF4EAFF7
:1005000026976D8D7E8D709561957F4F28967FAF74
:100510006EAF2897AB81BC81B095A195BF4F2A964D
:10052000BFAFAEAF2A97E8E1F0E02B8D3C8DE21B28
:10053000F30B2C96FFAFEEAF2C972A5F2D962FAFC3
:100540002D976AC38091520190915301AA24BB2434
:10055000A81AB90A4885552747FD509542235323C9
:100560005F834E8380917E0290917F0201969093EB
:100570007F0280937E025D815B8759876B85862E23
:10058000992487FC9094D401A657BD4F7C917C8719
:10059000872F992787FD90959A8F898FEB8DFC8DFA
:1005A0008E239F23892B09F4F4C277707D87272F30
:1005B000332727FD30953A832983C9018E599E4FF1
:1005C000FC018089282F332727FD30953E8B2D8B0A
:1005D00049805A80BFABAEABA4014250504059AFE6
:1005E00048AFB4016E5F7F4F7BAF6AAF66577D4FF8
:1005F0007DAF6CAF46575D4F5FAF4EAF18962296FA
:10060000BFAFAEAF2297A8C232017594679477E06E
:100610006722772483E090E0880E991E682479246D
:10062000ADEFBFEF8A0E9B1EE1E0F0E0E625F72577
:1006300022E030E0262537254D895E89475050401D
:100640005E8B4D8B69817A8163507040462B572BAE
:100650005FA74EA78D899E8907969E8B8D8B6D5FB8
:100660007F4F7A836983D301A657BD4FB9ABA8AB3F
:1006700026573D4F3BAB2AABE657FD4FFDABECABEE
:10068000E0915001F0915101F88BEF87FA8BE98BE3
:10069000FB85FA872C8520622FA3A2014F5F5F4F55
:1006A00059A748A7B201680D791D7BA76AA7898D54
:1006B0009A8D807290709DA78CA7AE81BF81109794
:1006C00021F0B885BA27BA8703C0EA85E40DEA8726
:1006D0002A85332727FD30952F963FAF2EAF2F97D2
:1006E00040914E0150914F01C90184239523892BDC
:1006F00009F032C2E0905001F090510169A17AA155
:100700006E157F05A9F02496AEADBFAD24978C91F0
:10071000882371F0C901861B970B02974CF4CB011B
:10072000821B930B029724F4A0905201B0905301C6
:1007300010E0BD85B33054F411E02F96EEADFFAD5F
:100740002F9729A13AA1E217F30711F0EA8503C018
:10075000E0E13A85E3276E2F772767FD7095788F64
:100760006F8BFB01E657FD4F70817E87E72FFF27D8
:10077000E7FDF0958B8D9C8D8E239F23892B09F0AF
:10078000EBC120E030E02F968EAD9FAD2F978819FA
:10079000990987709070892B11F421E030E080E096
:1007A00090E0AE85AA2311F481E090E0B901681BC6
:1007B000790BCB0120E030E07D85733014F421E02B
:1007C00030E082239323892B09F0C6C1E770F070D3
:1007D000E65AFE4F908183E698021001112437FEFD
:1007E00004C0A0905201B09053018D8D9E8DA8162B
:1007F000B9060CF0D9C180E090E02F96AEADBFAD48
:100800002F97EBA1FCA1AE17BF0711F081E090E09C
:10081000CB88DC88C81AD90A09F445C1FD85F630B1
:100820001CF060E070E015C02296AEADBFAD22971F
:100830008C91682F772767FD70952F96EEADFFADF1
:100840002F97E657FD4F8085992787FD9095681B68
:10085000790BEEA9FFA91082EF89F88DE657FD4FBD
:100860001082EF85F889E657FD4F10822F96EEAD86
:10087000FFAD2F97E657FD4F2FA120838F859889D5
:1008800084239523892B51F4E989FA89E657FD4F92
:100890002D963FAD2D973083625E7F4F112309F473
:1008A00044C088AD99AD84239523892B31F490E021
:1008B000AEADBFAD8C91BC858B1391E0EAADFBADC5
:1008C0004E235F23452B31F420E0ACADBDAD8C91C0
:1008D000BC858B1321E0675F7F4F892F90E0820FEB
:1008E000911D27EF3FEFFC01E29FC001E39F900DB8
:1008F000F29F900D1124680F791F88A599A52F9656
:100900002EAD3FAD2F97820F931F8E219F21892BF4
:1009100061F0F901E657FD4F808187608083809107
:10092000540190915501280E391E4B815C814A1566
:100930005B052CF4442755274A195B0904C02A9605
:100940004EAD5FAD2A9726962EAD3FAD2697261B5E
:10095000370B221933092F96EEACFFAC2F9709897C
:100960001A8928966EAD7FAD28972C968EAD9FADD7
:100970002C970E94420222273327281B390B4091D3
:100980007C0250917D028091520190915301481751
:10099000590709F455C0280F391F232B09F44FC0FC
:1009A00090E08416950609F491E020E0809187029A
:1009B0005A85581709F421E09223892F90E020E00E
:1009C00030E06BA17CA16830710511F421E030E0CA
:1009D00082239323892B99F126968EAD9FAD26977E
:1009E000821993099093790280937802A989BA8930
:1009F000B0937B02A0937A022F96EEADFFAD2F97B6
:100A0000E657FD4F2081822F992787FD9095498DCC
:100A10005A8D841B950B87709070892B09F451C1F6
:100A200080918802909189028B50934006970CF434
:100A300048C180910F038370281B208342C1950118
:100A4000EF85F889E657FD4F2D965FAD2D975083C2
:100A50002F96EEADFFAD2F97E657FD4F1082E98937
:100A6000FA89E657FD4F1082EC85AEA9BFA9EC9339
:100A70004F89588D46575D4FEE85DA01EC93A216EB
:100A8000B30654F4F09150014989F4235A855F2B41
:100A9000588759016B8569878E819F81892B19F051
:100AA0001F821E82EDCDAEA5BFA5AB2B11F5E8A927
:100AB000F9A98081992787FD90952B8D3C8D821B0C
:100AC000930B0697A1F4AAA9BBA92C91332727FD64
:100AD0003095ECA9FDA98081992787FD9095282B59
:100AE000392B232B21F4788A6F8620E003C0788A83
:100AF0006F8621E08AA59BA52F964EAD5FAD2F97FF
:100B0000841B950B6CA57DA5862B972B30E040E0D0
:100B100050E07D85733014F041E050E0242335230C
:100B2000822B932B892B71F080E09D8595300CF4FE
:100B300081E0AE85A80FAE87E989FA892F96FFAFCD
:100B4000EEAF2F97FE85FF2339F42F962EAD3FADE4
:100B50002F973A8B298BB1CD3D8533303CF057FE32
:100B600005C050944194510853944ECD4D895E89EF
:100B70004F5F5F4F5E8B4D8BFA01EE59FE4F8081C8
:100B8000992787FD909544245524481A590A09F05D
:100B90003BCD5B85575F80914E01809558235B87E5
:100BA0006D81561709F0EACC4091520150915301E2
:100BB00020914E0130914F01CA01821B930B8A157F
:100BC0009B052CF0241B350BA216B30624F482E6F9
:100BD00090E09C8B8B8BC501840F951F892BC1F4F2
:100BE000009150011091510166277727641B750B06
:100BF00081E0C82ED12C780120E030E02C968EAD1B
:100C00009FAD2C970E944202AA24BB24A81AB90ABD
:100C10008B899C89A985AD83FC013196FC8BEB8B7C
:100C20002DA13EA18217930794F14BA15CA14830FE
:100C30005105C9F520917C0230917D0280915201CD
:100C4000909153012817390771F520917E02309158
:100C50007F028091580190915901281739071CF49F
:100C6000E236F105A4F05D81852F992787FD9095E7
:100C700090937D0280937C0280914E0180956885DF
:100C800086238093870282E090E09C8B8B8B20915F
:100C9000500130915101AB89BC89119709F052CCB8
:100CA000AF8CB8A057CC40E050E0EF8DF8A1AE1665
:100CB000BF0614F441E050E09A012A0D3B1D3E8F1F
:100CC0002D8F8D8D9E8DC25BDF4F0FB6F894DEBFEA
:100CD0000FBECDBFCF91DF911F910F91FF90EF908D
:100CE000DF90CF90BF90AF909F908F907F906F904C
:100CF0005F904F903F902F90089580918702282F0A
:100D0000332727FD3095A6EAB1E0E0E0F0E08D91D1
:100D10009C9111978217930741F4EA51FE4F80810D
:100D20008093170321E030E007C031961296E0313E
:100D3000F10569F720E030E0C901089540917C0297
:100D400050917D0280918702282F332727FD30950F
:100D5000E6ECF1E0808191818417950711F43183ED
:100D60002083329681E0E63EF807A1F7089540918E
:100D70007C0250917D0280918702282F332727FD26
:100D80003095E6EAF1E0808191818417950711F4AE
:100D900031832083329681E0E63CF807A1F708957D
:100DA00090911703E6EEF1E0A6EAB1E028EC30E01E
:100DB0008081891719F411963C932E9331961296DF
:100DC00081E0E63FF807A1F708951092CC03109256
:100DD000CB038F35F1F08832E1F08932D1F08B33DB
:100DE000C1F08034B1F08C32A1F0813291F08A33BD
:100DF00081F08E3771F08B3661F08C3651F0883788
:100E000041F08B3531F08D3521F08D3311F08B377A
:100E100019F480931E0308958F3211F480931E03FA
:100E20000895803371F1813319F421E030E02BC053
:100E3000823319F422E030E026C0833319F423E032
:100E400030E021C0843319F424E030E01CC0853345
:100E500019F425E030E017C0863319F426E030E0BD
:100E600012C0873319F427E030E00DC0883319F43D
:100E700028E030E008C0893319F429E030E003C0ED
:100E8000089520E030E0C9010895982FE6EEF1E0E2
:100E9000A6EAB1E028EC30E08081981719F41196A9
:100EA0003C932E933196129681E0E63FF807A1F726
:100EB000089520917A0330917B032F5F3F4F309349
:100EC0007B0320937A03821793071CF020E030E025
:100ED00006C010927B0310927A0321E030E0C90132
:100EE000089580910C0290910D0290934703809396
:100EF000460380910E0290910F02909349038093D4
:100F00004803809110029091110290934B038093BB
:100F10004A03809112029091130290934D038093A3
:100F20004C03809120029091210290937103809351
:100F3000700380912C0290912D02909377038093FF
:100F4000760390937903809378030895CF93DF938A
:100F5000EC018091C9039091CA03892B29F4BE0149
:100F60008CED93E00E94521F8091C9039091CA03B7
:100F7000019759F4AE01662757FD6095762F20E062
:100F800030E08CED93E00E946A1FDF91CF910895CD
:100F9000CF93DF93EC018091C9039091CA03892B11
:100FA00029F4BE018CED93E00E94521F8091C90389
:100FB0009091CA03019759F4AE01662757FD6095D9
:100FC000762F20E030E08CED93E00E946A1FDF91E5
:100FD000CF910895CF93DF93EC018091C903909155
:100FE000CA03892B29F4BE018CED93E00E94521FA5
:100FF0008091C9039091CA03019759F4AE01662705
:1010000057FD6095762F20E030E08CED93E00E9454
:101010006A1FDF91CF910895CF93DF93EC01809108
:10102000C9039091CA03892B29F4BE018CED93E08A
:101030000E94521F8091C9039091CA03019759F4ED
:10104000AE01662757FD6095762F20E030E08CEDED
:1010500093E00E946A1FDF91CF9108950F931F9331
:10106000CF93DF93EC018A3091055CF481E090E04E
:101070000E940C08CE010E94EA078CED93E00E94CA
:10108000E61ECE010A978A359105B8F482E090E019
:101090000E940C08CE016AE070E00E94CB24CB01D4
:1010A0000E94EA07CE016AE070E00E94CB240E9411
:1010B000C8078CED93E00E94E61EC436D10544F1CA
:1010C00083E090E00E940C08CE0164E670E00E948C
:1010D000CB24182F092FCE0164E670E00E94CB24A8
:1010E000CB010E94EA07812F902F6AE070E00E94F6
:1010F000CB24CB010E94C807812F902F6AE070E0BB
:101100000E94CB240E94A6078CED93E00E94E61E6D
:10111000DF91CF911F910F9108950F931F9381E05D
:1011200090E09093CA038093C9030CED13E020E094
:1011300030E04EE550E060E070E0C8010E946A1FB8
:1011400020E030E04CE650E060E070E0C8010E9432
:101150006A1F80918702992787FD90950E942E082B
:101160001F910F9108950F931F9381E090E090934A
:10117000CA038093C9030CED13E020E030E04EE594
:1011800050E060E070E0C8010E946A1F20E030E09B
:101190004BE650E060E070E0C8010E946A1F809159
:1011A0007C0290917D020E942E081F910F9108955C
:1011B000EF92FF920F931F93CF93DF938CED93E009
:1011C0000E949F1F823321F4A2E0EA2EF12C09C075
:1011D000833321F4F3E0EF2EF12C03C0E1E0EE2E97
:1011E000F12CC7010197039740F48CED93E00E9426
:1011F0009F1F0E9411078C01AC01C7010297029743
:10120000A0F48CED93E00E949F1F0E941107EC0157
:10121000A801440F551FC80163E0880F991F6A9504
:10122000E1F7480F591F4C0F5D1F83E0E816F104EA
:10123000E9F48CED93E00E949F1F0E94110724E6C1
:1012400030E0029FA001039F500D129F500D11240A
:10125000480F591FCE0133E0880F991F3A95E1F7E7
:10126000CC0FDD1F8C0F9D1F480F591FCA01DF9146
:10127000CF911F910F91FF90EF9008950F931F93BF
:101280000CED13E060E071E0C8010E948C1F62E089
:1012900071E0C8010E948C1F80918702992787FD09
:1012A00090950E942E081F910F91089564E071E0BF
:1012B0008CED93E00E948C1F609172028CED93E0A4
:1012C0000E94E21E8091D8039091D903892B31F4BA
:1012D00066E071E08CED93E00E948C1F8091D80352
:1012E0009091D9030197029760F482E090E0909387
:1012F000D9038093D80369E071E08CED93E00E94FC
:101300008C1F08950F931F930CED13E06CE071E0B8
:10131000C8010E948C1F60911703C8010E94E21E41
:101320001F910F910895019749F480917002909157
:101330007102019790937102809370026EE071E0E8
:101340008CED93E00E948C1FE0917002F09171028D
:10135000EA51FE4F60818CED93E00E94E21E83E62D
:1013600090E090932302809322020895CF93DF931D
:101370008CED93E00E94E61E60E171E08CED93E05D
:101380000E948C1FC6EED1E062E171E08CED93E02B
:101390000E948C1F69918CED93E00E94E21E81E017
:1013A000CE3ED80789F78CED93E00E94E61E8FEFC2
:1013B0009FEF90937F0280937E0230C023FF0AC08C
:1013C000089690937F0280937E02892B19F0CAE0E1
:1013D000D0E013C0E0917E02F0917F02E657FD4F0E
:1013E000E081FF27E7FDF095EF70F070EE57FE4FBC
:1013F0008081C82FDD27C7FDD09562E171E08CEDBB
:1014000093E00E948C1FAE01662757FD6095762FF2
:1014100020E030E08CED93E00E946A1F80917E0214
:1014200090917F029C012F5F3F4F30937F0220936A
:101430007E022937310514F2DF91CF910895FF9292
:101440000F931F93082F81E090E09093CA0380933D
:10145000C9030E94D808182FF92E602F8CED93E055
:101460000E94E21E812F9F2D0E942E081092CA0317
:101470001092C903063229F410937C02F0927D0287
:1014800004C00F3311F4109387021F910F91FF9046
:10149000089565E171E08CED93E00E94901F109239
:1014A000C6031092C50368EE73E080E090E00E94EE
:1014B000E71F089568E171E08CED93E00E94901FB2
:1014C00008958091210390912203019771F08091FA
:1014D000250390912603019741F0609119037091C3
:1014E0001A038CED93E00E94521F8091CD039091DE
:1014F000CE03019711F40E945A0A0895CF93DF9307
:10150000C0917C02D0917D0280918702E82FFF2755
:10151000E7FDF095EC17FD0724F49E012E1B3F0B11
:1015200003C09F012C1B3D0B30932A0320932903FA
:10153000293031050CF499C0809121039091220348
:10154000019709F4C5C0C9018F709070892B41F5CE
:10155000EC17FD074CF481E3809316036AE171E018
:101560008CED93E00E948C1F80918702992787FD64
:10157000909520917C0230917D02281739074CF418
:1015800082E3809316036CE171E08CED93E00E949E
:101590008C1F8091290390912A0360E170E05EC066
:1015A000C9016FE070E00E94CB24892B41F5EC1754
:1015B000FD074CF487E3809316036EE171E08CED38
:1015C00093E00E948C1F80918702992787FD909558
:1015D00020917C0230917D02281739074CF488E372
:1015E0008093160360E271E08CED93E00E948C1F03
:1015F0008091290390912A036FE070E02FC0C90108
:1016000061E170E00E94CB24892B09F06AC0EC17DD
:10161000FD074CF485E38093160362E271E08CEDE4
:1016200093E00E948C1F80918702992787FD9095F7
:1016300020917C0230917D02281739074CF486E313
:101640008093160364E271E08CED93E00E948C1F9E
:101650008091290390912A0361E170E00E94CB24DC
:1016600070931A03609319033CC02830310584F548
:101670008091210390912203019751F1EC17FD070E
:101680004CF483E38093160366E271E08CED93E003
:101690000E948C1F80918702992787FD9095209149
:1016A0007C0230917D02281739074CF484E3809343
:1016B000160368E271E08CED93E00E948C1F80912C
:1016C000290390912A0390931A038093190309C068
:1016D0008091210390912203019719F4CE010E9479
:1016E0002E080E94610ADF91CF910895AF92BF92B8
:1016F000CF92DF92EF92FF920F931F93CF93DF93DE
:1017000006EA11E0C6ECD1E096EEE92E91E0F92E62
:1017100081E0C82ED12CB4E6AB2EB12CF80120818B
:10172000318180917C0290917D0228173907C1F4A4
:10173000F70180818A3611F08F3621F4D09222038E
:10174000C09221038093170360E071E08CED93E079
:101750000E948C1F609117038CED93E00E94E21EA3
:1017600080918702992787FD9095288139812817D4
:10177000390731F4B982A882D092CE03C092CD034A
:101780000E5F1F4F22960894E11CF11CF1E0063C0D
:101790001F0721F60E947E0ADF91CF911F910F91C2
:1017A000FF90EF90DF90CF90BF90AF900895809121
:1017B0005E020E948220089580915C020E94822035
:1017C00008950F931F930E94DC0B8C010E94D70B8E
:1017D0009C018091680390916903081719070CF523
:1017E00080916A0390916B0328173907D4F4809194
:1017F00084039091850301969093850380938403DD
:101800001092810310928003209182033091830310
:101810008217930731F482E090E090935303809312
:1018200052038091520390915303029709F048C0EC
:101830001092530310925203209176033091770354
:1018400080912C0290912D022817390721F41092D3
:1018500023021092220280913002909131022817C7
:10186000390739F0809136029091370228173907ED
:1018700039F48CE40E94F2001092230210922202AA
:101880002091760330917703809132029091330258
:101890002817390771F0809134029091350228178A
:1018A000390739F080912E0290912F0228173907BD
:1018B00039F482E50E94F200109223021092220273
:1018C0001F910F910895809156020E9482200895E1
:1018D0008091BB030E94822008950F931F938091F3
:1018E0003A0390913B03892B09F0F6C040917803AD
:1018F0005091790380913202909133024817590731
:1019000009F06FC08091300290913102909377037B
:1019100080937603209124023091250280910C025D
:1019200090910D02820F931F90934703809346037B
:1019300080910E0290910F02820F931F90934903A2
:10194000809348038091100290911102820F931F9F
:1019500090934B0380934A0380911202909113025B
:10196000820F931F90934D0380934C03809122022A
:10197000909123028730910529F08430910511F070
:101980000697D1F40E94680C8C010E94630C9C01A4
:101990008091540390915503081719076CF48091B6
:1019A0005603909157038217930734F481E090E037
:1019B00090933B0380933A038091220290912302FB
:1019C0008230910541F08530910529F083309105F1
:1019D00011F0089731F481E090E090933B038093FD
:1019E0003A034091780350917903809130029091AD
:1019F00031024817590709F06FC080913202909167
:101A000033029093770380937603209124023091E0
:101A1000250280910C0290910D02821B930B9093F2
:101A200047038093460380910E0290910F02821B20
:101A3000930B9093490380934803809110029091F7
:101A40001102821B930B90934B0380934A03809166
:101A5000120290911302821B930B90934D0380937B
:101A60004C0380912202909123028230910541F033
:101A70008530910529F08330910511F00897D1F454
:101A80000E94680C8C010E94630C9C01809154039D
:101A900090915503801791076CF4809156039091B3
:101AA00057032817390734F481E090E090933B0303
:101AB00080933A038091220290912302873091050E
:101AC00029F08430910511F0069731F481E090E01F
:101AD00090933B0380933A0320913A0330913B0368
:101AE00021303105B9F580910C0290910D0290934F
:101AF00047038093460380910E0290910F029093CA
:101B000049038093480380911002909111029093B1
:101B10004B0380934A038091120290911302909399
:101B20004D0380934C0380913C0390913D030196BB
:101B300090933D0380933C03899764F010923D039A
:101B400010923C03309337032093360310923B03EB
:101B500010923A031F910F9108950F931F93809154
:101B600072039091730301969093730380937203B1
:101B700045976CF10E94630C8C010E94680C9C01DB
:101B800080915603909157030817190764F48091C8
:101B9000520390915303892B31F481E090E09093AC
:101BA0005303809352038091540390915503281757
:101BB00039076CF48091520390915303019739F4E3
:101BC000109253031092520381E090E000C01F91E5
:101BD0000F910895CF93DF938091720390917303D7
:101BE00001969093730380937203459764F10E946A
:101BF000630CEC010E94680C209154033091550352
:101C00008217930764F48091520390915303892BB8
:101C100031F481E090E090935303809352038091DC
:101C2000560390915703C817D9076CF4809152035B
:101C300090915303019739F4109253031092520379
:101C400081E090E000C0DF91CF9108950F931F9342
:101C500080913002909131029093790380937803C0
:101C6000909377038093760320912402309125028C
:101C700080910C0290910D02820F931F9093470365
:101C80008093460380910E0290910F02820F931F62
:101C90009093490380934803809110029091110220
:101CA000820F931F90934B0380934A0380911202FB
:101CB00090911302820F931F90934D0380934C03D6
:101CC0000E94630C8C010E94680C9C018091560359
:101CD000909157030817190764F48091520390916B
:101CE0005303892B31F481E090E090935303809368
:101CF00052038091540390915503281739076CF4CF
:101D000080915203909153030197B9F482E090E0DF
:101D1000909353038093520310C0821793076CF47F
:101D20008091520390915303029739F41092530318
:101D30001092520381E090E000C01F910F9108952E
:101D4000CF93DF9380913202909133029093790385
:101D500080937803909377038093760320912402F5
:101D60003091250280910C0290910D02821B930B01
:101D7000909347038093460380910E0290910F0247
:101D8000821B930B90934903809348038091100228
:101D900090911102821B930B90934B0380934A0303
:101DA0008091120290911302821B930B90934D032A
:101DB00080934C030E94630CEC010E94680C2091FC
:101DC0005403309155038217930764F480915203B2
:101DD00090915303892B31F481E090E09093530369
:101DE000809352038091560390915703C817D907E7
:101DF0006CF480915203909153030197B9F482E0FF
:101E000090E0909353038093520310C08C179D076A
:101E10006CF48091520390915303029739F410921D
:101E200053031092520381E090E000C0DF91CF9104
:101E30000895CF93DF930E94630CEC010E94680C1D
:101E4000AC0180915603909157038C179D07CCF5F8
:101E50008091540390915503481759070CF0B9C06D
:101E600020912A0230912B0280911202909113024C
:101E7000821B930B90934D0380934C03809110022F
:101E800090911102821B930B90934B0380934A0312
:101E9000209170033091710380910C0290910D029A
:101EA000820F931F909347038093460380910E0205
:101EB00090910F02821B930B9093490380934803E8
:101EC00088C0C817D9070CF08BC06091540370917B
:101ED0005503641775070CF077C020912A023091E2
:101EE0002B028091120290911302820F931F909304
:101EF0004D0380934C038091100290911102820F48
:101F0000931F90934B0380934A0320917003309169
:101F1000710380910C0290910D02820F931F909398
:101F200047038093460380910E0290910F02821B1B
:101F3000930B909349038093480346C020912A0253
:101F400030912B028091120290911302820F931F05
:101F500090934D0380934C03809110029091110255
:101F6000820F931F14C020912A0230912B0280917E
:101F7000120290911302821B930B90934D03809356
:101F80004C038091100290911102821B930B90934D
:101F90004B0380934A032091700330917103809129
:101FA0000C0290910D02820F931F90934703809330
:101FB000460380910E0290910F02821B930B909327
:101FC0004903809348030CC0461757070CF4B6CF5B
:101FD00007C08091540390915503841795071CF214
:101FE000DF91CF910895809139028C34A9F58091C9
:101FF000300290913102909379038093780390930B
:1020000077038093760320912402309125028091FA
:102010000C0290910D02820F931F909347038093BF
:10202000460380910E0290910F02820F931F9093AE
:102030004903809348038091100290911102820F0E
:10204000931F90934B0380934A03809112029091C7
:102050001302820F931F36C08235D9F58091320268
:102060009091330290937903809378039093770350
:1020700080937603209124023091250280910C02F6
:1020800090910D02821B930B90934703809346031C
:1020900080910E0290910F02821B930B9093490343
:1020A000809348038091100290911102821B930B40
:1020B00090934B0380934A038091120290911302F4
:1020C000821B930B90934D0380934C0382E090E02E
:1020D00025C18735A9F58091300290913102909306
:1020E000790380937803909377038093760320910C
:1020F00024023091250280910C0290910D02820FF2
:10210000931F909347038093460380910E02909112
:102110000F02820F931F909349038093480380918D
:10212000100290911102820F931F90934B038093A2
:102130004A038091120290911302820F931F6DC087
:102140008835A9F5809132029091330290937903FA
:1021500080937803909377038093760320912402F1
:102160003091250280910C0290910D02821B930BFD
:10217000909347038093460380910E0290910F0243
:10218000821B930B90934903809348038091100224
:1021900090911102821B930B90934B0380934A03FF
:1021A0008091120290911302821B930B71C08935AA
:1021B000C9F5809132029091330290937903809314
:1021C00078039093770380937603209124023091D3
:1021D000250280910C0290910D02821B930B90932B
:1021E00047038093460380910E0290910F02821B59
:1021F000930B909349038093480380911002909130
:102200001102821B930B90934B0380934A0380919E
:10221000120290911302821B930B90934D038093B3
:102220004C037AC08A35D9F5809130029091310201
:102230009093790380937803909377038093760348
:10224000209124023091250280910C0290910D0280
:10225000820F931F909347038093460380910E0251
:1022600090910F02820F931F90934903809348032C
:102270008091100290911102820F931F90934B0353
:1022800080934A038091120290911302820F931F50
:1022900090934D0380934C0383E090E03FC08234E1
:1022A000D9F5809130029091310290937903809317
:1022B00078039093770380937603209124023091E2
:1022C000250280910C0290910D02820F931F909332
:1022D00047038093460380910E0290910F02820F74
:1022E000931F90934903809348038091100290912B
:1022F0001102820F931F90934B0380934A038091A6
:10230000120290911302820F931F90934D038093BA
:102310004C0384E090E002C081E090E090933D02A5
:1023200080933C028091380390913903892B09F006
:102330005AC00E94630C90934103809340030E9413
:10234000680C90933F0380933E03809172039091B9
:10235000730301969093730380937203209140025C
:102360003091410228173907F4F520917603309116
:102370007703809132029091330228173907A1F434
:102380008CE40E9486009C018130910569F4809163
:102390000002909101020196909301028093000245
:1023A00030933903209338032091760330917703DB
:1023B000809130029091310228173907A1F482E50B
:1023C0000E9486009C018130910569F48091000291
:1023D0009091010201969093010280930002309344
:1023E0003903209338038091380390913903019782
:1023F00009F04EC080910C0290910D02909347031A
:102400008093460380910E0290910F0290934903AE
:1024100080934803809110029091110290934B0396
:1024200080934A03809112029091130290934D037E
:1024300080934C0320913A0230913B0280917A03C1
:1024400090917B03019690937B0380937A032817E6
:102450003907F4F410927B0310927A032091000262
:102460003091010280913C0290913D0282179307C6
:102470003CF482E090E0909339038093380308C0E5
:102480001092730310927203109239031092380362
:102490008091380390913903029731F520917603AA
:1024A00030917703809132029091330228173907D7
:1024B00051F4309379032093780382E390E0909372
:1024C00023028093220280913002909131022817DA
:1024D000390751F4309379032093780382E390E035
:1024E00090932302809322020895809139028C34C4
:1024F00019F0823509F0CDC082E090E00FC0893537
:1025000009F0CBC009C08A3509F0CBC083E090E068
:1025100005C084E090E002C081E090E090933D022D
:1025200080933C028091380390913903892B09F004
:102530005AC00E94630C90934103809340030E9411
:10254000680C90933F0380933E03809172039091B7
:10255000730301969093730380937203209140025A
:102560003091410228173907F4F520917603309114
:102570007703809132029091330228173907A1F432
:102580008CE40E9486009C018130910569F4809161
:102590000002909101020196909301028093000243
:1025A00030933903209338032091760330917703D9
:1025B000809130029091310228173907A1F482E509
:1025C0000E9486009C018130910569F4809100028F
:1025D0009091010201969093010280930002309342
:1025E0003903209338038091380390913903019780
:1025F00009F05BC080910C0290910D02909347030B
:102600008093460380910E0290910F0290934903AC
:1026100080934803809110029091110290934B0394
:1026200080934A03809112029091130290934D037C
:1026300080934C0320913A0230913B0280917A03BF
:1026400090917B03019690937B0380937A032817E4
:1026500039075CF510927B0310927A0320910002F7
:102660003091010280913C0290913D0282179307C4
:102670003CF485E190E09093230280932202089538
:102680001092730310927203109239031092380360
:102690000895873509F033CF3FCF883509F033CF20
:1026A00035CF823409F038CF34CF0895FC01EE0FD6
:1026B000FF1FE05AFD4F80819181BC0161707070F5
:1026C0007093A00360939F03959587959C0121705B
:1026D00030703093A2032093A10395958795817064
:1026E00090709093A4038093A30380914A020E9468
:1026F00012216091A10380914C020E9412216091ED
:10270000A30380914E020E9412210895CF92DF927E
:10271000FF920F931F93CF93DF93F82E062F142F62
:1027200061E0802F0E94F42061E08F2D0E94F42050
:1027300060E08F2D0E94122160E0802F0E94122104
:10274000C0E0D0E0C12EDD2460E0802F0E94122185
:10275000B6010C2E02C0759567950A94E2F7617078
:102760008F2D0E94122161E0802F0E94122160E0D3
:102770008F2D0E9412212196C830D10529F760E0E3
:10278000802F0E941221DF91CF911F910F91FF9016
:10279000DF90CF900895EF92FF920F931F937C01EB
:1027A0008B0160E0809154020E9412210F541C4F53
:1027B0006091520270915302F80140818091500261
:1027C000909151020E94861387EA93E0E80EF91E69
:1027D0006091520270915302F70140818091500242
:1027E000909151020E94861361E0809154020E94F0
:1027F00012211F910F91FF90EF9008950F931F9357
:102800008A010E94CB13C8010E9456131F910F9199
:1028100008958B3539F480931D030E94E5060E94CC
:10282000560908958D3539F480931D030E94E506FD
:102830006AE271E056C08D3339F480931D030E9423
:10284000E5066CE271E04DC08B3441F480931D03CA
:102850008FE50E94E5060E94760B08958C3441F4C2
:1028600080931D038FE50E94E5060E943E090895AE
:10287000883239F480931D030E94E5060E94FD14FE
:1028800008958B3739F480931D030E94E5060E945A
:10289000820908958F3259F480931D030E94E50642
:1028A00020E030E04FE250E060E070E051C0803462
:1028B00039F480931D030E94E5066EE271E011C0B9
:1028C0008C3239F480931D030E94E50660E371E0C9
:1028D00008C0893259F480931D030E94E50662E323
:1028E00071E08CED93E00E948C1F08958B3319F4F6
:1028F00080931D030895813259F08B3639F480930B
:102900001D030E94E5060E94B30808958C3639F431
:1029100080931D030E94E5060E948D0808958A3366
:1029200059F480931D030E94E50620E030E04AE35D
:1029300050E060E070E00CC0883779F480931D03AC
:102940000E94E50620E030E048E750E060E070E0FB
:102950008CED93E00E946A1F08958E3789F480936E
:102960001D030E94E50641E050E062E070E082E075
:1029700090E00E94FE1381E090E00E949309089588
:102980008A3291F480931D0340E050E062E070E0F1
:1029900081E090E00E94FE130E94641782E390E0C1
:1029A000909323028093220208950F931F93CF9355
:1029B000DF93C6EAD1E006EE11E020917502309176
:1029C0007602888199812817390759F4F8018081A6
:1029D0008093720230937402209373028BE50E94FD
:1029E000091422960F5F1F4FF1E0C63CDF0729F75D
:1029F000DF91CF911F910F9108950F931F93A09195
:102A00001F03B0912003A031B1050CF5FD01EA517F
:102A1000FE4F808180931803AA0FBB1FAA55BE4F9B
:102A20000D911C9164E371E08CED93E00E948C1F8A
:102A3000609117038CED93E00E94E21E60911803F1
:102A40008CED93E00E94E21EC8010E942E08809146
:102A50001F0390912003409799F410922003109245
:102A60001F0380911D03883259F48091DA039091FD
:102A7000DB03019711F48BE701C089E20E9409147E
:102A80001F910F9108951092C6031092C50368EE2E
:102A900073E080E090E00E94E71F80911D038B347B
:102AA00011F40E94760B80911D038C3411F40E9466
:102AB0003E0980911D03883211F40E94FD1480911B
:102AC0001D03893231F462E371E08CED93E00E94E2
:102AD0008C1F80911D038B3711F40E948209809115
:102AE0001D038B3331F466E371E08CED93E00E94BB
:102AF0008C1F80911D03803429F460E48CED93E0F9
:102B00000E94E21E80911D038C3229F46CE28CED50
:102B100093E00E94E21E80911D03813211F40E9415
:102B20008D0880911D038A3331F468E371E08CEDE8
:102B300093E00E948C1F80911D038E3721F48FEF4C
:102B40009FEF0E94930980911D038B3611F40E9420
:102B5000B30880911D038C3611F40E948D0880917A
:102B60001D038B3511F40E94560980911D038D358C
:102B700031F46AE271E08CED93E00E948C1F809149
:102B80001D038D3331F46CE271E08CED93E00E9413
:102B90008C1F80911D038F3251F420E030E04FE212
:102BA00050E060E070E08CED93E00E946A1F80913D
:102BB0001D03883751F420E030E048E750E060E042
:102BC00070E08CED93E00E946A1F08958091C50328
:102BD0009091C60301969093C6038093C5038536F2
:102BE000910514F00E9443150895909118038917D8
:102BF000F9F4E0911F03F0912003EE0FFF1FEA5557
:102C0000FE4F2091F6013091F701808191812817C4
:102C1000390771F40E94490A80911F0390912003A3
:102C200001969093200380931F030E94FD14089542
:102C30000E9443150895FF920F931F938CED93E02C
:102C40000E949F1F182F8CED93E00E949F1F082F5A
:102C50008CED93E00E949F1FF82E809172028117E5
:102C600061F5013351F58091D8039091D903892BF7
:102C700089F481E3F81661F40E94490A81E090E04A
:102C80009093D9038093D8038DE50E94091402C064
:102C90000E9443158091D8039091D903029779F44B
:102CA00082E3F81651F40E94490A1092D903109257
:102CB000D8038DE50E94091402C00E9443151F919C
:102CC0000F91FF900895EF92FF920F931F93082F9B
:102CD000F62EE42E80911D038B3409F07DC01091F7
:102CE0001703011709F078C00A3611F00F36B9F44E
:102CF0002091F8013091F90180917C0290917D0240
:102D00002817390721F48CE40E94091402C00E949C
:102D100043150A3609F460C01F3609F45DC080917E
:102D200016038F1509F056C08E2D0E9411072091B1
:102D3000190330911A032817390709F04BC0809105
:102D4000CD039091CE03892BE9F40E94490A40916A
:102D50007C0250917D0280918702282F332727FD26
:102D60003095E6EAF1E0808191818417950711F4AE
:102D700031832083329681E0E63CF807A1F780E4B6
:102D80000E9409148091CD039091CE03019721F503
:102D90008091CF038E32F1F40E94490A40917C0267
:102DA00050917D0280918702282F332727FD30958F
:102DB000E6EAF1E0808191818417950711F431836F
:102DC0002083329681E0E63CF807A1F780E40E9478
:102DD000091402C00E94431580911D038C3479F5BB
:102DE0000C3459F580918702992787FD90952091A1
:102DF000FA013091FB0128173907F9F48091CD03CE
:102E00009091CE03892B29F40E94490A88E20E94FE
:102E100009148091CD039091CE03019781F48CED3C
:102E200093E00E949F1F8093CF038E3231F40E9463
:102E3000490A88E20E94091402C00E9443151F91AA
:102E40000F91FF90EF90089580918702992787FD59
:102E500090952091FA013091FB0128173907E9F488
:102E60000E94490A1092CA031092C9038091CD03AF
:102E70009091CE03892B19F48AE30E940914809162
:102E8000CD039091CE03019751F41092CE0310928E
:102E9000CD0388E70E94091408950E944315089500
:102EA0002091F8013091F90180917C0290917D028E
:102EB0002817390731F40E94490A8CE60E94091448
:102EC00008950E9443150895CF92DF92EF92FF92EA
:102ED0000F931F9368EE73E080E090E00E94E71F7D
:102EE00088E090E090935701809356014091520101
:102EF0005091530150937D0240937C0200917A02DD
:102F000010917B0220917802309179026627772711
:102F1000641B750BF2E0CF2ED12CE8E0EE2EF12CE5
:102F20000E9442020E94B60968EE73E080E090E0E1
:102F30000E94E71F8BE40E9409141F910F91FF90DC
:102F4000EF90DF90CF9008952091D0033091D1037E
:102F50002A3031054CF580917A0390917B030196DC
:102F600090937B0380937A034597F4F010927B0350
:102F700010927A0320FD07C041E050E062E070E06B
:102F800082E090E006C040E050E062E070E081E066
:102F900090E00E94FE138091D0039091D10301969E
:102FA0009093D1038093D0038091D0039091D1036B
:102FB0000A9751F41092D1031092D00382E390E06B
:102FC00090932302809322020895CF92DF92EF9292
:102FD000FF920F931F930E94CF1F20914E033091B9
:102FE0004F034091500350915103621B730B840BAC
:102FF000950B2091140230911502442737FD40951E
:10300000542F621773078407950708F4A6C58091AB
:103010007A0390917B03019690937B0380937A03CC
:10302000893C91050CF499C010927B0310927A03AD
:1030300020917C0330917D0321303105B9F4109249
:103040007D0310927C038091D6039091D703019762
:1030500031F41092D7031092D6038BE505C030935C
:10306000CA032093C9038BE60E94091480917E0352
:1030700090917F03019739F410927F0310927E03A1
:103080008CE20E94091480917C0390917D03029749
:1030900099F510927D0310927C038EE780931D03B7
:1030A0000E94E50680917002909171020097C9F428
:1030B0008091D2039091D30301969093D303809390
:1030C000D2030197C9F480E190E09093710280935C
:1030D00070021092D3031092D2038AE20E94091464
:1030E0000BC01816190644F41092CC031092CB03AF
:1030F00081E090E00E94930980917C0390917D0390
:10310000039761F410927D0310927C030E94D51402
:1031100081E090E09093D7038093D60380917C0365
:1031200090917D03049739F410927D0310927C03F3
:103130008DE30E94091480917C0390917D03059793
:1031400061F410927D0310927C030E94641781E069
:1031500090E09093CC038093CB038091CB0390912C
:10316000CC03892B11F40E94E6158CED93E00E94AC
:10317000A21F882309F41FC28CED93E00E949F1FB9
:10318000182F8D3269F46AE371E08CED93E00E94B0
:103190008C1F10927B0310927A0381E090E09DC017
:1031A0008E3369F46CE371E08CED93E00E948C1F28
:1031B00010927B0310927A0383E090E08EC08B32F2
:1031C00069F46EE371E08CED93E00E948C1F109225
:1031D0007B0310927A0384E090E07FC08D3769F41E
:1031E00060E471E08CED93E00E948C1F10927B03F1
:1031F00010927A0385E090E070C08B3519F40E943C
:103200001B16D9C18034A9F0813299F0883789F032
:103210008A3379F08C3269F08E3759F08D3549F068
:10322000893239F08D3329F08F3219F08B3709F05C
:1032300046C080911D03811749F40E94490A81E02C
:1032400090E09093CC038093CB0302C00E9443157F
:10325000103449F48091CD039091CE03019709F089
:10326000AAC181E2CAC0113229F48CED93E00E9418
:103270009F1FF8C01E3711F480E4BFC01932F9F463
:1032800080E40E9409141092220310922103E6EABE
:10329000F1E02081318180917C0290917D0228179C
:1032A000390739F480918702992787FD909591839A
:1032B0008083329681E0E63CF80759F77CC11036EE
:1032C00089F462E471E08CED93E00E948C1F10920F
:1032D0007B0310927A0382E090E090937D038093C9
:1032E0007C0369C11B3389F466E371E08CED93E0E4
:1032F0000E948C1F10927B0310927A0381E090E071
:1033000090937F0380937E0356C1163211F01F33D2
:1033100019F4812F0E941F0A1C3709F071C080E147
:1033200090E0909357018093560140915201509143
:10333000530150937D0240937C0200917A021091D8
:103340007B02209178023091790266277727641BEF
:10335000750BE2E0CE2ED12CB8E0EB2EF12C0E94C2
:10336000420220915201309153018217930709F0D4
:1033700043C0E6ECF1E02081318180917C029091A4
:103380007D022817390739F480918702992787FD34
:10339000909591838083329681E0E63EF80759F755
:1033A0000E94B60980918702282F332727FD309588
:1033B000A6EAB1E0E0E0F0E08D919C9111978217D0
:1033C000930779F4EA51FE4F80818093170381E0DF
:1033D00090E09093DB038093DA0388E20E94091463
:1033E00006C031961296E031F10531F7B3C3109261
:1033F000CC031092CB03DFC08FE20E940914DBC024
:103400001C3399F40E94D808909376028093750239
:1034100064E471E08CED93E00E948C1F8091750252
:10342000909176020E942E08C6C01E3521F580912B
:103430001D038B56823020F41092C6031092C503F0
:103440008CED93E00E949F1F8B3649F40E94D808B0
:103450009093F9018093F8010E945017ACC08C360C
:1034600009F0A9C00E94D8089093FB018093FA014B
:103470000E942417A0C01832B9F480911D0388322D
:1034800021F41092C6031092C5038CED93E00E94C4
:103490009F1F182F0E94D8089093F7018093F60180
:1034A000812F0E94F51587C01332C1F48CED93E093
:1034B0000E949F1F982FE6EEF1E0A6EAB1E028EC0B
:1034C00030E08081981719F411963C932E93319631
:1034D000129681E0E63FF807A1F76DC01F3509F0AD
:1034E00042C080911E038F3521F41092C6031092C2
:1034F000C5038CED93E00E949F1F182F8A3611F0B0
:103500008F3649F40E94D8089093F9018093F8010E
:103510004AE76AE724C08C3451F40E94D80890939B
:10352000FB018093FA014AE76AE78CE419C08CED4D
:1035300093E00E949F1FF82E8CED93E00E949F1F46
:10354000082F8091CD039091CE03019731F48CED3B
:1035500093E00E949F1F8093CF03402F6F2D812FF8
:103560000E94631628C01133A1F48CED93E00E94F1
:103570009F1F803329F410922302109222021BC055
:103580008D33C9F484E190E090932302809322026A
:1035900012C0143381F48CED93E00E949F1F80339E
:1035A00031F488E290E090932302809322021092FB
:1035B00033031092320380912202909123028336CA
:1035C000910511F40E94A417809122029091230288
:1035D000469791F481E090E090936F0380936E039F
:1035E00010926D0310926C03809118029091190251
:1035F00090932302809322028091220290912302D1
:10360000C29709F08AC080910C0290910D029093AC
:1036100047038093460380910E0290910F0290938E
:103620004903809348038091100290911102909376
:103630004B0380934A03809112029091130290935E
:103640004D0380934C0380912C0290912D02909316
:103650007703809376038EE40E94F2008EE40E944A
:10366000D900109273031092720310927503109296
:1036700074031092810310928003109283031092BE
:103680008203109285031092840381E090E090936E
:10369000FD018093FC0110923103109230031092CF
:1036A000530310925203909301028093000290936F
:1036B0003D0280933C02109239031092380310921D
:1036C00037031092360380916E0390916F03019738
:1036D000B1F4E0916C03F0916D03E330F1057CF4FB
:1036E0003196F0936D03E0936C03EE0FFF1FE85EDD
:1036F000FD4F8081918190932302809322028091DB
:103700006C0390916D03039744F010926F03109235
:103710006E0310926D0310926C03809122029091BF
:103720002302892B09F00DC1209176033091770394
:1037300080912C0290912D022817390739F0809141
:103740002E0290912F022817390791F480913802A8
:103750008E3471F48091300290913102909379030C
:103760008093780382E390E0909323028093220277
:10377000809138028C3409F071C089E090E0909318
:10378000230280932202109273031092720310920C
:1037900075031092740310928103109280031092AB
:1037A000830310928203109285031092840381E0B8
:1037B00090E09093FD018093FC01109231031092F0
:1037C000300310925303109252039093010280939E
:1037D000000290933D0280933C02109239031092B4
:1037E0003803109237031092360380913202909181
:1037F00033029093790380937803909377038093B7
:10380000760380910C0290910D0220912402309158
:103810002502821B930B909347038093460380916C
:103820000E0290910F02821B930B90934903809399
:1038300048038091100290911102821B930B909388
:103840004B0380934A038091120290911302821BD2
:10385000930B90934D0380934C0373C0823509F012
:1038600070C089E090E0909323028093220210922E
:1038700073031092720310927503109274031092E6
:10388000810310928003109283031092820310929E
:1038900085031092840381E090E09093FD01809372
:1038A000FC011092310310923003109253031092D6
:1038B0005203909301028093000290933D02809303
:1038C0003C02109239031092380310923703109281
:1038D0003603809130029091310290937903809366
:1038E000780390937703809376032091240230919C
:1038F000250280910C0290910D02820F931F9093EC
:1039000047038093460380910E0290910F02820F2D
:10391000931F9093490380934803809110029091E4
:103920001102820F931F90934B0380934A0380915F
:10393000120290911302280F391F30934D032093E8
:103940004C038091220290912302449799F440E025
:1039500050E062E070E081E090E00E94FE1366E4D7
:1039600071E08CED93E00E94901F61E0809116025F
:103970000E9412218091220290912302459709F022
:103980009EC0809139028C3431F0823421F0873529
:1039900011F08A3519F40E94260E9C01809139029B
:1039A000823521F0883511F0893519F40E94A00E76
:1039B0009C012130310509F082C080911002909164
:1039C000110290934B0380934A03809112029091CD
:1039D000130290934D0380934C0330932302209362
:1039E0002202809139028C3481F4809134029091CA
:1039F0003502909377038093760380913202909101
:103A00003302909379038093780380913902823551
:103A100081F48091360290913702909377038093DE
:103A200076038091300290913102909379038093D4
:103A3000780380913902823481F480912E02909132
:103A40002F02909377038093760380912C029091BC
:103A50002D02909379038093780310927303109250
:103A600072031092750310927403109281031092E6
:103A700080031092830310928203109285031092A8
:103A8000840381E090E09093FD018093FC0110920B
:103A9000310310923003109253031092520390930B
:103AA00001028093000290933D0280933C021092A9
:103AB000390310923803109237031092360361E0F5
:103AC000809108020E941221809146039091470341
:103AD0000E942F2060E0809108020E94122161E084
:103AE00080910A020E94122180914803909149031B
:103AF0000E942F2060E080910A020E94122161E062
:103B0000809106020E94122180914A0390914B03FA
:103B10000E942F2060E0809106020E94122161E045
:103B2000809104020E94122180914C0390914D03D8
:103B30000E942F2060E0809104020E9412210E94C6
:103B4000CF1F60934E0370934F0380935003909365
:103B5000510303C00E9464174ACC1F910F91FF903C
:103B6000EF90DF90CF9008952F923F924F925F9207
:103B70006F927F928F929F92AF92BF92CF92DF927D
:103B8000EF92FF920F931F93DF93CF93CDB7DEB7E2
:103B900028970FB6F894DEBF0FBECDBF61E08091CD
:103BA00008020E94F42061E080910A020E94F42041
:103BB00061E0809106020E94F42061E0809104029D
:103BC0000E94F42061E0809116020E94F42061E0DE
:103BD000809154020E94F4201092A70380EC8093FD
:103BE000A80380E38093A9031092B1038093B303E9
:103BF00061E080914A020E94F42061E080914C02D1
:103C00000E94F42061E080914E020E94F42040E086
:103C10005BE460E070E08CED93E00E94A51F68EE2D
:103C200073E080E090E00E94E71F21E831E03A83F2
:103C3000298301E9402E02E0502E11EF612E12E09F
:103C4000712E43E050E058874F83B9E02B2EE98175
:103C5000FA818081885FF301808B885FF201808325
:103C600022E1208BF30120822F813885229FC00121
:103C7000239F900D329F900D1124A6E08A2EA3E081
:103C80009A2E820E931EF7E03F2E9C01442737FDAB
:103C90004095542F2B833C834D835E832BC0772725
:103CA00067FD7095872F972F0E94DC2320E030E07E
:103CB00040E650E40E9444237B018C016B817C81AF
:103CC0008D819E810E94DC235B016C01A80197011C
:103CD000C801B7010E9468249B01AC01C601B5016F
:103CE0000E9445230E94A923F401608320EF3FEF47
:103CF000820E931E632D3A943EEF331681F649816E
:103D00005A81415050405A834983089441085108D0
:103D10000894610871088F819885019798878F832F
:103D20008B5F9F4F09F093CF8FEF809387028FEFC8
:103D30009FEF90937D0280937C020E94B6090E94BF
:103D4000641728960FB6F894DEBF0FBECDBFCF9193
:103D5000DF911F910F91FF90EF90DF90CF90BF9078
:103D6000AF909F908F907F906F905F904F903F901B
:103D70002F9008950E943D200E94B41D0E94E517D7
:103D8000FDCF089508950895CB01BA0130E040E0D9
:103D900050E00E947E220895CB01BA012AE030E073
:103DA00040E050E00E947E22089580E090E02AE00A
:103DB00030E040E050E00E947E220895862F0E946D
:103DC00061220895862F0E94612208958DE00E944D
:103DD00061228AE00E94612208950F931F938C0153
:103DE000CB01BA012AE030E040E050E00E947E22A0
:103DF000C8010E94E61E1F910F9108950F931F9313
:103E00008C0180E090E02AE030E040E050E00E9449
:103E10007E22C8010E94E61E1F910F9108950F9304
:103E20001F938C01862F0E946122C8010E94E61E0A
:103E30001F910F9108950F931F938C01862F0E945D
:103E40006122C8010E94E61E1F910F910895EF9212
:103E5000FF920F931F937A018B0177FF0BC08DE2C6
:103E60000E94612210950095F094E094E11CF11CF1
:103E7000011D111D2AE030E040E050E0C801B7010B
:103E80000E947E221F910F91FF90EF9008950F9353
:103E90001F938C010E94271FC8010E94E61E1F91DC
:103EA0000F910895AB01662757FD6095762F0E940C
:103EB000271F08950F931F938C01AB01662757FDB1
:103EC0006095762F0E94271FC8010E94E61E1F9151
:103ED0000F910895FA01DB012115310521F4842F9A
:103EE0000E94612208952A30310519F40E94271F8B
:103EF000089530E040E050E0BF01CD010E947E22F5
:103F000008950F931F938C010E946A1FC8010E949D
:103F1000E61E1F910F910895CB010E947122089512
:103F20000F931F938C01CB010E947122C8010E9444
:103F3000E61E1F910F9108950E941A2208950E9473
:103F4000FB2108950E94EA210895CB01BA010E9445
:103F5000A92108951F920F920FB60F9211248F93EB
:103F60009F93AF93BF938091E1039091E203A0915F
:103F7000E303B091E4030196A11DB11D8093E10319
:103F80009093E203A093E303B093E403BF91AF9156
:103F90009F918F910F900FBE0F901F901895609179
:103FA000E1037091E2038091E3039091E40327E041
:103FB000660F771F881F991F2A95D1F72DE730E0EC
:103FC00040E050E00E94DE24CA01B9010895AF929A
:103FD000BF92CF92DF92EF92FF920F931F935B01FC
:103FE0006C016091E1037091E2038091E303909191
:103FF000E40347E0660F771F881F991F4A95D1F7A2
:104000002DE730E040E050E00E94DE2479018A0193
:104010006091E1037091E2038091E3039091E403E6
:1040200037E0660F771F881F991F3A95D1F72DE764
:1040300030E040E050E00E94DE242E193F09400BA2
:10404000510B2A153B054C055D0510F31F910F918F
:10405000FF90EF90DF90CF90BF90AF9008950197C1
:1040600059F0FC01EE0FFF1FEE0FFF1F32978FB7C5
:10407000F8943197F1F78FBF089578941092E10387
:104080001092E2031092E3031092E40384B582607D
:1040900084BD84B5816084BD85B5826085BD85B5EC
:1040A000816085BDEEE6F0E0808181608083E1E89B
:1040B000F0E0808182608083808181608083E0E89D
:1040C000F0E0808181608083E1EBF0E080818460BA
:1040D0008083E0EBF0E0808181608083EAE7F0E0BC
:1040E0008081846080838081826080838081816020
:1040F00080838081806880831092C10008958093BE
:10410000770208958F70909177029295990F990F89
:10411000907C982B90937C0080917A0080648093AF
:104120007A0080917A0086FDFCCF20917800409142
:104130007900942F80E030E0282B392BC9010895B5
:104140001F93CF93DF93182FEB0161E00E94F420BF
:10415000E12FF0E0E156FF4F8491833051F48091DC
:104160008000806880938000D0938900C09388008D
:1041700037C0843051F48091800080628093800049
:10418000D0938B00C0938A002BC0813029F484B572
:10419000806884BDC7BD24C0823029F484B58062A4
:1041A00084BDC8BD1DC0863041F48091B0008068D8
:1041B0008093B000C093B30013C0873041F4809166
:1041C000B00080628093B000C093B40009C0C038D2
:1041D000D10514F460E001C061E0812F0E9412213A
:1041E000DF91CF911F910895282F30E0C9018557A5
:1041F0009F4FFC01949129583F4FF90184918823E6
:1042000081F0E82FF0E0E859FF4FE491F0E06623F9
:1042100029F4808190958923808308958081892B5A
:1042200080830895482F50E0CA0181569F4FFC01BA
:104230002491CA0185579F4FFC01949149585F4FC3
:10424000FA0134913323C1F1222331F1233021F4D7
:10425000809180008F7705C0243031F480918000F8
:104260008F7D8093800018C0213019F484B58F773A
:1042700004C0223021F484B58F7D84BD0DC026306A
:1042800021F48091B0008F7705C0273029F4809108
:10429000B0008F7D8093B000E32FF0E0E359FF4F33
:1042A000E491F0E0662329F480819095892380834E
:1042B00008958081892B80830895482F50E0CA019A
:1042C00081569F4FFC012491CA0185579F4FFC01E5
:1042D000949149585F4FFA013491332319F420E047
:1042E00030E035C0222331F1233021F48091800069
:1042F0008F7705C0243031F4809180008F7D8093CA
:10430000800018C0213019F484B58F7704C02230A2
:1043100021F484B58F7D84BD0DC0263021F48091B9
:10432000B0008F7705C0273029F48091B0008F7DD1
:104330008093B000E32FF0E0EE58FF4FE491F0E0FF
:10434000808120E030E0892311F021E030E0C901D4
:104350000895EF92FF920F931F937B018C0122E04F
:1043600030E040E050E00E940025205C3D4B404F93
:104370005F4FCA01B901A80197010E940025C90138
:10438000DA010197A109B109292F3A2F4B2F55279F
:1043900047FD5A950196A11DB11D2093C50081507E
:1043A0008093C400E1ECF0E08081806180838081B3
:1043B000886080838081806880831F910F91FF9047
:1043C000EF900895982F8091C00085FFFCCF9093C7
:1043D000C60008958091DD039091DE0380589F4FC1
:1043E0002091DF033091E003821B930B60E870E0C3
:1043F0000E94CB2408954091DF035091E003809107
:10440000DD039091DE038417950719F42FEF3FEF3A
:104410000FC0FA01EB51FC4F2081CA01019660E800
:1044200070E00E94CB249093E0038093DF0330E0A0
:10443000C90108958091DF039091E0039093DE031A
:104440008093DD0308951F920F920FB60F921124EF
:104450002F933F934F935F936F937F938F939F938C
:10446000AF93BF93EF93FF934091C600E091DD03BC
:10447000F091DE03CF01019660E870E00E94CB244A
:104480009C018091DF039091E0032817390739F0F0
:10449000EB51FC4F40833093DE032093DD03FF910B
:1044A000EF91BF91AF919F918F917F916F915F91AC
:1044B0004F913F912F910F900FBE0F901F90189525
:1044C0000895982F8091C00085FFFCCF9093C6007F
:1044D00008958091C00085FFFCCF8AE08093C600DC
:1044E0000895FC0107C08091C00085FFFCCF319684
:1044F0009093C60090819923B1F708952F923F922F
:104500004F925F926F927F928F929F92AF92BF92E3
:10451000CF92DF92EF92FF920F931F93DF93CF938F
:10452000CDB7DEB7A0970FB6F894DEBF0FBECDBFF4
:104530006B017C0129013A01611571058105910525
:1045400041F48091C00085FFFCCF80E38093C600DA
:1045500049C08824992454011E010894211C311C4F
:104560008101080D191DC701B601A30192010E9426
:10457000DE24F80160830894811C911CA11CB11CED
:10458000C701B601A30192010E94DE24C901DA012C
:104590006C017D01C114D104E104F10409F791011A
:1045A000280D391DBE016F5F7F4FD501C4010197F2
:1045B000A109B109AC014819590911C0FA01E20F6A
:1045C000F31FE081EA3010F4E05D01C0E95C809106
:1045D000C00085FFFCCFE093C60021503040621739
:1045E000730761F7A0960FB6F894DEBF0FBECDBF7C
:1045F000CF91DF911F910F91FF90EF90DF90CF90BF
:10460000BF90AF909F908F907F906F905F904F90F2
:104610003F902F900895EF92FF920F931F937B018D
:104620008C0197FF0FC08091C00085FFFCCF8DE209
:104630008093C60010950095F094E094E11CF11C65
:10464000011D111D2AE030E040E050E0C801B70133
:104650000E947E221F910F91FF90EF90089520E11C
:1046600030E040E050E00E947E22089528E030E0F3
:1046700040E050E00E947E22089522E030E040E0D9
:1046800050E00E947E2208955058BB27AA270ED0E2
:10469000E5C0D6D030F0DBD020F031F49F3F11F4EC
:1046A0001EF4CBC00EF4E095E7FBC1C0E92FE7D0C4
:1046B00080F3BA17620773078407950718F071F43F
:1046C0009EF5FFC00EF4E0950B2EBA2FA02D0B0126
:1046D000B90190010C01CA01A0011124FF27591B47
:1046E00099F0593F50F4503E68F11A16F040A22F4D
:1046F000232F342F4427585FF3CF469537952795BE
:10470000A795F0405395C9F77EF41F16BA0B620BBC
:10471000730B840BBAF09150A1F0FF0FBB1F661F03
:10472000771F881FC2F70EC0BA0F621F731F841F46
:1047300048F4879577956795B795F7959E3F08F06C
:10474000B3CF9395880F08F09927EE0F979587952B
:10475000089504D06894B111B5C0089598D088F038
:104760009F5790F0B92F9927B751A0F0D1F0660F5D
:10477000771F881F991F1AF0BA95C9F712C0B13078
:1047800081F09FD0B1E008959CC0672F782F8827D3
:10479000B85F39F0B93FCCF3869577956795B395B7
:1047A000D9F73EF490958095709561957F4F8F4F26
:1047B0009F4F0895E89409C097FB3EF4909580952B
:1047C000709561957F4F8F4F9F4F9923A9F0F92FD7
:1047D00096E9BB279395F695879577956795B79555
:1047E000F111F8CFFAF4BB0F11F460FF1BC06F5F3B
:1047F0007F4F8F4F9F4F16C0882311F096E911C04D
:10480000772321F09EE8872F762F05C0662371F06D
:1048100096E8862F70E060E02AF09A95660F771F81
:10482000881FDAF7880F9695879597F9089597F975
:104830009F6780E870E060E008959FEF80EC089546
:1048400000240A941616170618060906089500246F
:104850000A9412161306140605060895092E0394E9
:10486000000C11F4882352F0BB0F40F4BF2B11F45D
:1048700060FF04C06F5F7F4F8F4F9F4F089557FDBC
:104880009058440F551F59F05F3F71F04795880FBE
:1048900097FB991F61F09F3F79F087950895121655
:1048A00013061406551FF2CF4695F1DF08C0161601
:1048B00017061806991FF1CF8695710561050894B2
:1048C0000895E894BB2766277727CB0197F90895C9
:1048D0000BD0C4CFB5DF28F0BADF18F0952309F06C
:1048E000A6CFABCF1124EECFCADFA0F3959FD1F3B3
:1048F000950F50E0551F629FF001729FBB27F00D8E
:10490000B11D639FAA27F00DB11DAA1F649F6627E2
:10491000B00DA11D661F829F2227B00DA11D621F31
:10492000739FB00DA11D621F839FA00D611D221FEB
:10493000749F3327A00D611D231F849F600D211DCF
:10494000822F762F6A2F11249F5750408AF0E1F072
:1049500088234AF0EE0FFF1FBB1F661F771F881FBB
:1049600091505040A9F79E3F510570F060CFAACFFB
:104970005F3FECF3983EDCF3869577956795B795A6
:10498000F795E7959F5FC1F7FE2B880F911D9695D0
:10499000879597F9089597FB092E07260AD077FD8A
:1049A00004D049D006D000201AF4709561957F4F4D
:1049B0000895F6F7909581959F4F0895A1E21A2EDC
:1049C000AA1BBB1BFD010DC0AA1FBB1FEE1FFF1FB3
:1049D000A217B307E407F50720F0A21BB30BE40B03
:1049E000F50B661F771F881F991F1A9469F760954A
:1049F0007095809590959B01AC01BD01CF01089504
:104A000097FB092E05260ED057FD04D0D7DF0AD01C
:104A1000001C38F450954095309521953F4F4F4FED
:104A20005F4F0895F6F790958095709561957F4F4B
:104A30008F4F9F4F0895AA1BBB1B51E107C0AA1FB0
:104A4000BB1FA617B70710F0A61BB70B881F991F2F
:104A50005A95A9F780959095BC01CD010895EE0F68
:0E4A6000FF1F0590F491E02D0994F894FFCF0C
:104A6E005F004C005B003131003132007B007E0074
:104A7E0020002020004F4B002E0031003200370066
:104A8E00380035003600330034005D003D00400034
:104A9E002C00290028003B003A002D003E002B0080
:104AAE007D0060003C000A5265732E2E2E00880099
:104ABE008000401F1F0310006400000101FF03036C
:104ACE000509F0F1EF0001100001100F11000E1298
:104ADE001F210007FF060B08030606040507030542
:104AEE0004062E3F2B6B6E6272713F2A3F4B4E4275
:104AFE005251002E3F2B6B6E6272713F2A3F4B4E0E
:104B0E0042525100010060006100620063006400C7
:104B1E00650066006700700071007200730074001B
:104B2E00750076007700000001000200030004000B
:104B3E0005000600070010001100120013001400FB
:104B4E001500160017006162636465666768696A1E
:104B5E006B6C6D6E6F70C800C800C8000100140049
:104B6E0001001E0009000A0006000B00DC05DC0532
:104B7E00DC05DC05140004000100040008006E00D2
:104B8E003C006300320014003200140015001600C1
:104B9E001700180019001A004E4E140001003C00B8
:104BAE00140064002800F401F40108000C000D004C
:104BBE0005000200030001000200030004000500CE
:104BCE000A00010000000B0064006E006F0065001B
:084BDE0010007AC800C80001B4
:00000001FF
